{
  "_format": "hh-sol-artifact-1",
  "contractName": "RoboNFT",
  "sourceName": "contracts/SRDNFT.sol",
  "abi": [
    {
      "inputs": [],
      "stateMutability": "nonpayable",
      "type": "constructor"
    },
    {
      "anonymous": false,
      "inputs": [
        {
          "indexed": true,
          "internalType": "address",
          "name": "owner",
          "type": "address"
        },
        {
          "indexed": true,
          "internalType": "address",
          "name": "approved",
          "type": "address"
        },
        {
          "indexed": true,
          "internalType": "uint256",
          "name": "tokenId",
          "type": "uint256"
        }
      ],
      "name": "Approval",
      "type": "event"
    },
    {
      "anonymous": false,
      "inputs": [
        {
          "indexed": true,
          "internalType": "address",
          "name": "owner",
          "type": "address"
        },
        {
          "indexed": true,
          "internalType": "address",
          "name": "operator",
          "type": "address"
        },
        {
          "indexed": false,
          "internalType": "bool",
          "name": "approved",
          "type": "bool"
        }
      ],
      "name": "ApprovalForAll",
      "type": "event"
    },
    {
      "anonymous": false,
      "inputs": [
        {
          "indexed": false,
          "internalType": "address",
          "name": "sender",
          "type": "address"
        },
        {
          "indexed": false,
          "internalType": "uint256",
          "name": "tokenId",
          "type": "uint256"
        }
      ],
      "name": "NewEpicNFTMinted",
      "type": "event"
    },
    {
      "anonymous": false,
      "inputs": [
        {
          "indexed": true,
          "internalType": "address",
          "name": "from",
          "type": "address"
        },
        {
          "indexed": true,
          "internalType": "address",
          "name": "to",
          "type": "address"
        },
        {
          "indexed": true,
          "internalType": "uint256",
          "name": "tokenId",
          "type": "uint256"
        }
      ],
      "name": "Transfer",
      "type": "event"
    },
    {
      "inputs": [
        {
          "internalType": "address",
          "name": "to",
          "type": "address"
        },
        {
          "internalType": "uint256",
          "name": "tokenId",
          "type": "uint256"
        }
      ],
      "name": "approve",
      "outputs": [],
      "stateMutability": "nonpayable",
      "type": "function"
    },
    {
      "inputs": [
        {
          "internalType": "address",
          "name": "owner",
          "type": "address"
        }
      ],
      "name": "balanceOf",
      "outputs": [
        {
          "internalType": "uint256",
          "name": "",
          "type": "uint256"
        }
      ],
      "stateMutability": "view",
      "type": "function"
    },
    {
      "inputs": [
        {
          "internalType": "uint256",
          "name": "tokenId",
          "type": "uint256"
        }
      ],
      "name": "getApproved",
      "outputs": [
        {
          "internalType": "address",
          "name": "",
          "type": "address"
        }
      ],
      "stateMutability": "view",
      "type": "function"
    },
    {
      "inputs": [
        {
          "internalType": "address",
          "name": "owner",
          "type": "address"
        },
        {
          "internalType": "address",
          "name": "operator",
          "type": "address"
        }
      ],
      "name": "isApprovedForAll",
      "outputs": [
        {
          "internalType": "bool",
          "name": "",
          "type": "bool"
        }
      ],
      "stateMutability": "view",
      "type": "function"
    },
    {
      "inputs": [
        {
          "internalType": "string",
          "name": "_message",
          "type": "string"
        }
      ],
      "name": "makeAnEpicNFT",
      "outputs": [],
      "stateMutability": "nonpayable",
      "type": "function"
    },
    {
      "inputs": [],
      "name": "name",
      "outputs": [
        {
          "internalType": "string",
          "name": "",
          "type": "string"
        }
      ],
      "stateMutability": "view",
      "type": "function"
    },
    {
      "inputs": [
        {
          "internalType": "uint256",
          "name": "tokenId",
          "type": "uint256"
        }
      ],
      "name": "ownerOf",
      "outputs": [
        {
          "internalType": "address",
          "name": "",
          "type": "address"
        }
      ],
      "stateMutability": "view",
      "type": "function"
    },
    {
      "inputs": [
        {
          "internalType": "address",
          "name": "from",
          "type": "address"
        },
        {
          "internalType": "address",
          "name": "to",
          "type": "address"
        },
        {
          "internalType": "uint256",
          "name": "tokenId",
          "type": "uint256"
        }
      ],
      "name": "safeTransferFrom",
      "outputs": [],
      "stateMutability": "nonpayable",
      "type": "function"
    },
    {
      "inputs": [
        {
          "internalType": "address",
          "name": "from",
          "type": "address"
        },
        {
          "internalType": "address",
          "name": "to",
          "type": "address"
        },
        {
          "internalType": "uint256",
          "name": "tokenId",
          "type": "uint256"
        },
        {
          "internalType": "bytes",
          "name": "_data",
          "type": "bytes"
        }
      ],
      "name": "safeTransferFrom",
      "outputs": [],
      "stateMutability": "nonpayable",
      "type": "function"
    },
    {
      "inputs": [
        {
          "internalType": "address",
          "name": "operator",
          "type": "address"
        },
        {
          "internalType": "bool",
          "name": "approved",
          "type": "bool"
        }
      ],
      "name": "setApprovalForAll",
      "outputs": [],
      "stateMutability": "nonpayable",
      "type": "function"
    },
    {
      "inputs": [
        {
          "internalType": "bytes4",
          "name": "interfaceId",
          "type": "bytes4"
        }
      ],
      "name": "supportsInterface",
      "outputs": [
        {
          "internalType": "bool",
          "name": "",
          "type": "bool"
        }
      ],
      "stateMutability": "view",
      "type": "function"
    },
    {
      "inputs": [],
      "name": "symbol",
      "outputs": [
        {
          "internalType": "string",
          "name": "",
          "type": "string"
        }
      ],
      "stateMutability": "view",
      "type": "function"
    },
    {
      "inputs": [
        {
          "internalType": "uint256",
          "name": "tokenId",
          "type": "uint256"
        }
      ],
      "name": "tokenURI",
      "outputs": [
        {
          "internalType": "string",
          "name": "",
          "type": "string"
        }
      ],
      "stateMutability": "view",
      "type": "function"
    },
    {
      "inputs": [
        {
          "internalType": "address",
          "name": "from",
          "type": "address"
        },
        {
          "internalType": "address",
          "name": "to",
          "type": "address"
        },
        {
          "internalType": "uint256",
          "name": "tokenId",
          "type": "uint256"
        }
      ],
      "name": "transferFrom",
      "outputs": [],
      "stateMutability": "nonpayable",
      "type": "function"
    }
  ],
  "bytecode": "0x60806040526040518060400160405280601581526020017f68747470733a2f2f726f626f686173682e6f72672f000000000000000000000081525060089080519060200190620000519291906200021d565b503480156200005f57600080fd5b506040518060400160405280600781526020017f526f626f4e4654000000000000000000000000000000000000000000000000008152506040518060400160405280600481526020017f524f424f000000000000000000000000000000000000000000000000000000008152508160009080519060200190620000e49291906200021d565b508060019080519060200190620000fd9291906200021d565b5050506200014b6040518060400160405280601e81526020017f54686973206973206d79204e465420636f6e74726163742e20576f61682100008152506200015160201b62000d621760201c565b620003fa565b620001f1816040516024016200016891906200030e565b6040516020818303038152906040527f41304fac000000000000000000000000000000000000000000000000000000007bffffffffffffffffffffffffffffffffffffffffffffffffffffffff19166020820180517bffffffffffffffffffffffffffffffffffffffffffffffffffffffff8381831617835250505050620001f460201b60201c565b50565b60008151905060006a636f6e736f6c652e6c6f679050602083016000808483855afa5050505050565b8280546200022b9062000384565b90600052602060002090601f0160209004810192826200024f57600085556200029b565b82601f106200026a57805160ff19168380011785556200029b565b828001600101855582156200029b579182015b828111156200029a5782518255916020019190600101906200027d565b5b509050620002aa9190620002ae565b5090565b5b80821115620002c9576000816000905550600101620002af565b5090565b6000620002da8262000332565b620002e681856200033d565b9350620002f88185602086016200034e565b6200030381620003e9565b840191505092915050565b600060208201905081810360008301526200032a8184620002cd565b905092915050565b600081519050919050565b600082825260208201905092915050565b60005b838110156200036e57808201518184015260208101905062000351565b838111156200037e576000848401525b50505050565b600060028204905060018216806200039d57607f821691505b60208210811415620003b457620003b3620003ba565b5b50919050565b7f4e487b7100000000000000000000000000000000000000000000000000000000600052602260045260246000fd5b6000601f19601f8301169050919050565b613481806200040a6000396000f3fe608060405234801561001057600080fd5b50600436106100ea5760003560e01c80636352211e1161008c578063a22cb46511610066578063a22cb4651461025b578063b88d4fde14610277578063c87b56dd14610293578063e985e9c5146102c3576100ea565b80636352211e146101dd57806370a082311461020d57806395d89b411461023d576100ea565b8063095ea7b3116100c8578063095ea7b31461016d57806323b872dd1461018957806339fa8daf146101a557806342842e0e146101c1576100ea565b806301ffc9a7146100ef57806306fdde031461011f578063081812fc1461013d575b600080fd5b610109600480360381019061010491906121ff565b6102f3565b6040516101169190612c83565b60405180910390f35b6101276103d5565b6040516101349190612c9e565b60405180910390f35b61015760048036038101906101529190612292565b610467565b6040516101649190612bf3565b60405180910390f35b610187600480360381019061018291906121c3565b6104ec565b005b6101a3600480360381019061019e91906120bd565b610604565b005b6101bf60048036038101906101ba9190612251565b610664565b005b6101db60048036038101906101d691906120bd565b61077d565b005b6101f760048036038101906101f29190612292565b61079d565b6040516102049190612bf3565b60405180910390f35b61022760048036038101906102229190612058565b61084f565b6040516102349190612efe565b60405180910390f35b610245610907565b6040516102529190612c9e565b60405180910390f35b61027560048036038101906102709190612187565b610999565b005b610291600480360381019061028c919061210c565b610b1a565b005b6102ad60048036038101906102a89190612292565b610b7c565b6040516102ba9190612c9e565b60405180910390f35b6102dd60048036038101906102d89190612081565b610cce565b6040516102ea9190612c83565b60405180910390f35b60007f80ac58cd000000000000000000000000000000000000000000000000000000007bffffffffffffffffffffffffffffffffffffffffffffffffffffffff1916827bffffffffffffffffffffffffffffffffffffffffffffffffffffffff191614806103be57507f5b5e139f000000000000000000000000000000000000000000000000000000007bffffffffffffffffffffffffffffffffffffffffffffffffffffffff1916827bffffffffffffffffffffffffffffffffffffffffffffffffffffffff1916145b806103ce57506103cd82610dfb565b5b9050919050565b6060600080546103e490613211565b80601f016020809104026020016040519081016040528092919081815260200182805461041090613211565b801561045d5780601f106104325761010080835404028352916020019161045d565b820191906000526020600020905b81548152906001019060200180831161044057829003601f168201915b5050505050905090565b600061047282610e65565b6104b1576040517f08c379a00000000000000000000000000000000000000000000000000000000081526004016104a890612e5e565b60405180910390fd5b6004600083815260200190815260200160002060009054906101000a900473ffffffffffffffffffffffffffffffffffffffff169050919050565b60006104f78261079d565b90508073ffffffffffffffffffffffffffffffffffffffff168373ffffffffffffffffffffffffffffffffffffffff161415610568576040517f08c379a000000000000000000000000000000000000000000000000000000000815260040161055f90612ebe565b60405180910390fd5b8073ffffffffffffffffffffffffffffffffffffffff16610587610ed1565b73ffffffffffffffffffffffffffffffffffffffff1614806105b657506105b5816105b0610ed1565b610cce565b5b6105f5576040517f08c379a00000000000000000000000000000000000000000000000000000000081526004016105ec90612d9e565b60405180910390fd5b6105ff8383610ed9565b505050565b61061561060f610ed1565b82610f92565b610654576040517f08c379a000000000000000000000000000000000000000000000000000000000815260040161064b90612ede565b60405180910390fd5b61065f838383611070565b505050565b600061067060076112cc565b90506000600883604051602001610688929190612b68565b604051602081830303815290604052905060006106cd6106a7846112da565b836040516020016106b9929190612bae565b6040516020818303038152906040526114af565b90506000816040516020016106e29190612b8c565b60405160208183030381529060405290506106fc81610d62565b610706338561166d565b610710848261168b565b6107336040518060600160405280602581526020016133e76025913985336116ff565b7febb98688741ffa4c7589bf325de30cf7becb63de567842e1ccdb6cb949fdc82c3385604051610764929190612c5a565b60405180910390a1610776600761179e565b5050505050565b61079883838360405180602001604052806000815250610b1a565b505050565b6000806002600084815260200190815260200160002060009054906101000a900473ffffffffffffffffffffffffffffffffffffffff169050600073ffffffffffffffffffffffffffffffffffffffff168173ffffffffffffffffffffffffffffffffffffffff161415610846576040517f08c379a000000000000000000000000000000000000000000000000000000000815260040161083d90612dde565b60405180910390fd5b80915050919050565b60008073ffffffffffffffffffffffffffffffffffffffff168273ffffffffffffffffffffffffffffffffffffffff1614156108c0576040517f08c379a00000000000000000000000000000000000000000000000000000000081526004016108b790612dbe565b60405180910390fd5b600360008373ffffffffffffffffffffffffffffffffffffffff1673ffffffffffffffffffffffffffffffffffffffff168152602001908152602001600020549050919050565b60606001805461091690613211565b80601f016020809104026020016040519081016040528092919081815260200182805461094290613211565b801561098f5780601f106109645761010080835404028352916020019161098f565b820191906000526020600020905b81548152906001019060200180831161097257829003601f168201915b5050505050905090565b6109a1610ed1565b73ffffffffffffffffffffffffffffffffffffffff168273ffffffffffffffffffffffffffffffffffffffff161415610a0f576040517f08c379a0000000000000000000000000000000000000000000000000000000008152600401610a0690612d5e565b60405180910390fd5b8060056000610a1c610ed1565b73ffffffffffffffffffffffffffffffffffffffff1673ffffffffffffffffffffffffffffffffffffffff16815260200190815260200160002060008473ffffffffffffffffffffffffffffffffffffffff1673ffffffffffffffffffffffffffffffffffffffff16815260200190815260200160002060006101000a81548160ff0219169083151502179055508173ffffffffffffffffffffffffffffffffffffffff16610ac9610ed1565b73ffffffffffffffffffffffffffffffffffffffff167f17307eab39ab6107e8899845ad3d59bd9653f200f220920489ca2b5937696c3183604051610b0e9190612c83565b60405180910390a35050565b610b2b610b25610ed1565b83610f92565b610b6a576040517f08c379a0000000000000000000000000000000000000000000000000000000008152600401610b6190612ede565b60405180910390fd5b610b76848484846117b4565b50505050565b6060610b8782610e65565b610bc6576040517f08c379a0000000000000000000000000000000000000000000000000000000008152600401610bbd90612e3e565b60405180910390fd5b6000600660008481526020019081526020016000208054610be690613211565b80601f0160208091040260200160405190810160405280929190818152602001828054610c1290613211565b8015610c5f5780601f10610c3457610100808354040283529160200191610c5f565b820191906000526020600020905b815481529060010190602001808311610c4257829003601f168201915b505050505090506000610c70611810565b9050600081511415610c86578192505050610cc9565b600082511115610cbb578082604051602001610ca3929190612b44565b60405160208183030381529060405292505050610cc9565b610cc484611827565b925050505b919050565b6000600560008473ffffffffffffffffffffffffffffffffffffffff1673ffffffffffffffffffffffffffffffffffffffff16815260200190815260200160002060008373ffffffffffffffffffffffffffffffffffffffff1673ffffffffffffffffffffffffffffffffffffffff16815260200190815260200160002060009054906101000a900460ff16905092915050565b610df881604051602401610d769190612c9e565b6040516020818303038152906040527f41304fac000000000000000000000000000000000000000000000000000000007bffffffffffffffffffffffffffffffffffffffffffffffffffffffff19166020820180517bffffffffffffffffffffffffffffffffffffffffffffffffffffffff83818316178352505050506118ce565b50565b60007f01ffc9a7000000000000000000000000000000000000000000000000000000007bffffffffffffffffffffffffffffffffffffffffffffffffffffffff1916827bffffffffffffffffffffffffffffffffffffffffffffffffffffffff1916149050919050565b60008073ffffffffffffffffffffffffffffffffffffffff166002600084815260200190815260200160002060009054906101000a900473ffffffffffffffffffffffffffffffffffffffff1673ffffffffffffffffffffffffffffffffffffffff1614159050919050565b600033905090565b816004600083815260200190815260200160002060006101000a81548173ffffffffffffffffffffffffffffffffffffffff021916908373ffffffffffffffffffffffffffffffffffffffff160217905550808273ffffffffffffffffffffffffffffffffffffffff16610f4c8361079d565b73ffffffffffffffffffffffffffffffffffffffff167f8c5be1e5ebec7d5bd14f71427d1e84f3dd0314c0f7b2291e5b200ac8c7c3b92560405160405180910390a45050565b6000610f9d82610e65565b610fdc576040517f08c379a0000000000000000000000000000000000000000000000000000000008152600401610fd390612d7e565b60405180910390fd5b6000610fe78361079d565b90508073ffffffffffffffffffffffffffffffffffffffff168473ffffffffffffffffffffffffffffffffffffffff16148061105657508373ffffffffffffffffffffffffffffffffffffffff1661103e84610467565b73ffffffffffffffffffffffffffffffffffffffff16145b8061106757506110668185610cce565b5b91505092915050565b8273ffffffffffffffffffffffffffffffffffffffff166110908261079d565b73ffffffffffffffffffffffffffffffffffffffff16146110e6576040517f08c379a00000000000000000000000000000000000000000000000000000000081526004016110dd90612e7e565b60405180910390fd5b600073ffffffffffffffffffffffffffffffffffffffff168273ffffffffffffffffffffffffffffffffffffffff161415611156576040517f08c379a000000000000000000000000000000000000000000000000000000000815260040161114d90612d3e565b60405180910390fd5b6111618383836118f7565b61116c600082610ed9565b6001600360008573ffffffffffffffffffffffffffffffffffffffff1673ffffffffffffffffffffffffffffffffffffffff16815260200190815260200160002060008282546111bc919061311a565b925050819055506001600360008473ffffffffffffffffffffffffffffffffffffffff1673ffffffffffffffffffffffffffffffffffffffff16815260200190815260200160002060008282546112139190613002565b92505081905550816002600083815260200190815260200160002060006101000a81548173ffffffffffffffffffffffffffffffffffffffff021916908373ffffffffffffffffffffffffffffffffffffffff160217905550808273ffffffffffffffffffffffffffffffffffffffff168473ffffffffffffffffffffffffffffffffffffffff167fddf252ad1be2c89b69c2b068fc378daa952ba7f163c4a11628f55a4df523b3ef60405160405180910390a4505050565b600081600001549050919050565b60606000821415611322576040518060400160405280600181526020017f300000000000000000000000000000000000000000000000000000000000000081525090506114aa565b600082905060005b6000821461135457808061133d90613243565b915050600a8261134d919061308f565b915061132a565b60008167ffffffffffffffff811115611396577f4e487b7100000000000000000000000000000000000000000000000000000000600052604160045260246000fd5b6040519080825280601f01601f1916602001820160405280156113c85781602001600182028036833780820191505090505b50905060008290505b600086146114a2576001816113e6919061311a565b90506000600a80886113f8919061308f565b61140291906130c0565b8761140d919061311a565b60306114199190613058565b905060008160f81b90508084848151811061145d577f4e487b7100000000000000000000000000000000000000000000000000000000600052603260045260246000fd5b60200101907effffffffffffffffffffffffffffffffffffffffffffffffffffffffffffff1916908160001a905350600a88611499919061308f565b975050506113d1565b819450505050505b919050565b606060008251905060008114156114d85760405180602001604052806000815250915050611668565b600060036002836114e99190613002565b6114f3919061308f565b60046114ff91906130c0565b905060006020826115109190613002565b67ffffffffffffffff81111561154f577f4e487b7100000000000000000000000000000000000000000000000000000000600052604160045260246000fd5b6040519080825280601f01601f1916602001820160405280156115815781602001600182028036833780820191505090505b509050600060405180606001604052806040815260200161340c604091399050600181016020830160005b868110156116255760038101905062ffffff818a015116603f8160121c168401518060081b905060ff603f83600c1c1686015116810190508060081b905060ff603f8360061c1686015116810190508060081b905060ff603f831686015116810190508060e01b905080845260048401935050506115ac565b50600386066001811461163f576002811461164f5761165a565b613d3d60f01b600283035261165a565b603d60f81b60018303525b508484525050819450505050505b919050565b6116878282604051806020016040528060008152506118fc565b5050565b61169482610e65565b6116d3576040517f08c379a00000000000000000000000000000000000000000000000000000000081526004016116ca90612dfe565b60405180910390fd5b806006600084815260200190815260200160002090805190602001906116fa929190611e7c565b505050565b61179983838360405160240161171793929190612cc0565b6040516020818303038152906040527fe3849f79000000000000000000000000000000000000000000000000000000007bffffffffffffffffffffffffffffffffffffffffffffffffffffffff19166020820180517bffffffffffffffffffffffffffffffffffffffffffffffffffffffff83818316178352505050506118ce565b505050565b6001816000016000828254019250508190555050565b6117bf848484611070565b6117cb84848484611957565b61180a576040517f08c379a000000000000000000000000000000000000000000000000000000000815260040161180190612cfe565b60405180910390fd5b50505050565b606060405180602001604052806000815250905090565b606061183282610e65565b611871576040517f08c379a000000000000000000000000000000000000000000000000000000000815260040161186890612e9e565b60405180910390fd5b600061187b611810565b9050600081511161189b57604051806020016040528060008152506118c6565b806118a584611aee565b6040516020016118b6929190612b44565b6040516020818303038152906040525b915050919050565b60008151905060006a636f6e736f6c652e6c6f679050602083016000808483855afa5050505050565b505050565b6119068383611c9b565b6119136000848484611957565b611952576040517f08c379a000000000000000000000000000000000000000000000000000000000815260040161194990612cfe565b60405180910390fd5b505050565b60006119788473ffffffffffffffffffffffffffffffffffffffff16611e69565b15611ae1578373ffffffffffffffffffffffffffffffffffffffff1663150b7a026119a1610ed1565b8786866040518563ffffffff1660e01b81526004016119c39493929190612c0e565b602060405180830381600087803b1580156119dd57600080fd5b505af1925050508015611a0e57506040513d601f19601f82011682018060405250810190611a0b9190612228565b60015b611a91573d8060008114611a3e576040519150601f19603f3d011682016040523d82523d6000602084013e611a43565b606091505b50600081511415611a89576040517f08c379a0000000000000000000000000000000000000000000000000000000008152600401611a8090612cfe565b60405180910390fd5b805181602001fd5b63150b7a0260e01b7bffffffffffffffffffffffffffffffffffffffffffffffffffffffff1916817bffffffffffffffffffffffffffffffffffffffffffffffffffffffff191614915050611ae6565b600190505b949350505050565b60606000821415611b36576040518060400160405280600181526020017f30000000000000000000000000000000000000000000000000000000000000008152509050611c96565b600082905060005b60008214611b68578080611b5190613243565b915050600a82611b61919061308f565b9150611b3e565b60008167ffffffffffffffff811115611baa577f4e487b7100000000000000000000000000000000000000000000000000000000600052604160045260246000fd5b6040519080825280601f01601f191660200182016040528015611bdc5781602001600182028036833780820191505090505b5090505b60008514611c8f57600182611bf5919061311a565b9150600a85611c04919061328c565b6030611c109190613002565b60f81b818381518110611c4c577f4e487b7100000000000000000000000000000000000000000000000000000000600052603260045260246000fd5b60200101907effffffffffffffffffffffffffffffffffffffffffffffffffffffffffffff1916908160001a905350600a85611c88919061308f565b9450611be0565b8093505050505b919050565b600073ffffffffffffffffffffffffffffffffffffffff168273ffffffffffffffffffffffffffffffffffffffff161415611d0b576040517f08c379a0000000000000000000000000000000000000000000000000000000008152600401611d0290612e1e565b60405180910390fd5b611d1481610e65565b15611d54576040517f08c379a0000000000000000000000000000000000000000000000000000000008152600401611d4b90612d1e565b60405180910390fd5b611d60600083836118f7565b6001600360008473ffffffffffffffffffffffffffffffffffffffff1673ffffffffffffffffffffffffffffffffffffffff1681526020019081526020016000206000828254611db09190613002565b92505081905550816002600083815260200190815260200160002060006101000a81548173ffffffffffffffffffffffffffffffffffffffff021916908373ffffffffffffffffffffffffffffffffffffffff160217905550808273ffffffffffffffffffffffffffffffffffffffff16600073ffffffffffffffffffffffffffffffffffffffff167fddf252ad1be2c89b69c2b068fc378daa952ba7f163c4a11628f55a4df523b3ef60405160405180910390a45050565b600080823b905060008111915050919050565b828054611e8890613211565b90600052602060002090601f016020900481019282611eaa5760008555611ef1565b82601f10611ec357805160ff1916838001178555611ef1565b82800160010185558215611ef1579182015b82811115611ef0578251825591602001919060010190611ed5565b5b509050611efe9190611f02565b5090565b5b80821115611f1b576000816000905550600101611f03565b5090565b6000611f32611f2d84612f4a565b612f19565b905082815260208101848484011115611f4a57600080fd5b611f558482856131cf565b509392505050565b6000611f70611f6b84612f7a565b612f19565b905082815260208101848484011115611f8857600080fd5b611f938482856131cf565b509392505050565b600081359050611faa8161338a565b92915050565b600081359050611fbf816133a1565b92915050565b600081359050611fd4816133b8565b92915050565b600081519050611fe9816133b8565b92915050565b600082601f83011261200057600080fd5b8135612010848260208601611f1f565b91505092915050565b600082601f83011261202a57600080fd5b813561203a848260208601611f5d565b91505092915050565b600081359050612052816133cf565b92915050565b60006020828403121561206a57600080fd5b600061207884828501611f9b565b91505092915050565b6000806040838503121561209457600080fd5b60006120a285828601611f9b565b92505060206120b385828601611f9b565b9150509250929050565b6000806000606084860312156120d257600080fd5b60006120e086828701611f9b565b93505060206120f186828701611f9b565b925050604061210286828701612043565b9150509250925092565b6000806000806080858703121561212257600080fd5b600061213087828801611f9b565b945050602061214187828801611f9b565b935050604061215287828801612043565b925050606085013567ffffffffffffffff81111561216f57600080fd5b61217b87828801611fef565b91505092959194509250565b6000806040838503121561219a57600080fd5b60006121a885828601611f9b565b92505060206121b985828601611fb0565b9150509250929050565b600080604083850312156121d657600080fd5b60006121e485828601611f9b565b92505060206121f585828601612043565b9150509250929050565b60006020828403121561221157600080fd5b600061221f84828501611fc5565b91505092915050565b60006020828403121561223a57600080fd5b600061224884828501611fda565b91505092915050565b60006020828403121561226357600080fd5b600082013567ffffffffffffffff81111561227d57600080fd5b61228984828501612019565b91505092915050565b6000602082840312156122a457600080fd5b60006122b284828501612043565b91505092915050565b6122c48161314e565b82525050565b6122d381613160565b82525050565b60006122e482612fbf565b6122ee8185612fd5565b93506122fe8185602086016131de565b61230781613379565b840191505092915050565b600061231d82612fca565b6123278185612fe6565b93506123378185602086016131de565b61234081613379565b840191505092915050565b600061235682612fca565b6123608185612ff7565b93506123708185602086016131de565b80840191505092915050565b6000815461238981613211565b6123938186612ff7565b945060018216600081146123ae57600181146123bf576123f2565b60ff198316865281860193506123f2565b6123c885612faa565b60005b838110156123ea578154818901526001820191506020810190506123cb565b838801955050505b50505092915050565b6000612408603283612fe6565b91507f4552433732313a207472616e7366657220746f206e6f6e20455243373231526560008301527f63656976657220696d706c656d656e74657200000000000000000000000000006020830152604082019050919050565b600061246e601c83612fe6565b91507f4552433732313a20746f6b656e20616c7265616479206d696e746564000000006000830152602082019050919050565b60006124ae602483612fe6565b91507f4552433732313a207472616e7366657220746f20746865207a65726f2061646460008301527f72657373000000000000000000000000000000000000000000000000000000006020830152604082019050919050565b6000612514601983612fe6565b91507f4552433732313a20617070726f766520746f2063616c6c6572000000000000006000830152602082019050919050565b6000612554602c83612fe6565b91507f4552433732313a206f70657261746f7220717565727920666f72206e6f6e657860008301527f697374656e7420746f6b656e00000000000000000000000000000000000000006020830152604082019050919050565b60006125ba603883612fe6565b91507f4552433732313a20617070726f76652063616c6c6572206973206e6f74206f7760008301527f6e6572206e6f7220617070726f76656420666f7220616c6c00000000000000006020830152604082019050919050565b6000612620602a83612fe6565b91507f4552433732313a2062616c616e636520717565727920666f7220746865207a6560008301527f726f2061646472657373000000000000000000000000000000000000000000006020830152604082019050919050565b6000612686602983612fe6565b91507f4552433732313a206f776e657220717565727920666f72206e6f6e657869737460008301527f656e7420746f6b656e00000000000000000000000000000000000000000000006020830152604082019050919050565b60006126ec602e83612fe6565b91507f45524337323155524953746f726167653a2055524920736574206f66206e6f6e60008301527f6578697374656e7420746f6b656e0000000000000000000000000000000000006020830152604082019050919050565b6000612752600283612ff7565b91507f227d0000000000000000000000000000000000000000000000000000000000006000830152600282019050919050565b6000612792602083612fe6565b91507f4552433732313a206d696e7420746f20746865207a65726f20616464726573736000830152602082019050919050565b60006127d2603183612fe6565b91507f45524337323155524953746f726167653a2055524920717565727920666f722060008301527f6e6f6e6578697374656e7420746f6b656e0000000000000000000000000000006020830152604082019050919050565b6000612838602c83612fe6565b91507f4552433732313a20617070726f76656420717565727920666f72206e6f6e657860008301527f697374656e7420746f6b656e00000000000000000000000000000000000000006020830152604082019050919050565b600061289e602983612fe6565b91507f4552433732313a207472616e73666572206f6620746f6b656e2074686174206960008301527f73206e6f74206f776e00000000000000000000000000000000000000000000006020830152604082019050919050565b6000612904602f83612fe6565b91507f4552433732314d657461646174613a2055524920717565727920666f72206e6f60008301527f6e6578697374656e7420746f6b656e00000000000000000000000000000000006020830152604082019050919050565b600061296a604c83612ff7565b91507f222c20226465736372697074696f6e223a20224120686967686c79206163636c60008301527f61696d656420636f6c6c656374696f6e206f6620526f626f4861736865732e2260208301527f2c2022696d616765223a202200000000000000000000000000000000000000006040830152604c82019050919050565b60006129f6602183612fe6565b91507f4552433732313a20617070726f76616c20746f2063757272656e74206f776e6560008301527f72000000000000000000000000000000000000000000000000000000000000006020830152604082019050919050565b6000612a5c601d83612ff7565b91507f646174613a6170706c69636174696f6e2f6a736f6e3b6261736536342c0000006000830152601d82019050919050565b6000612a9c603183612fe6565b91507f4552433732313a207472616e736665722063616c6c6572206973206e6f74206f60008301527f776e6572206e6f7220617070726f7665640000000000000000000000000000006020830152604082019050919050565b6000612b02601383612ff7565b91507f7b226e616d65223a2022526f626f4e46542023000000000000000000000000006000830152601382019050919050565b612b3e816131b8565b82525050565b6000612b50828561234b565b9150612b5c828461234b565b91508190509392505050565b6000612b74828561237c565b9150612b80828461234b565b91508190509392505050565b6000612b9782612a4f565b9150612ba3828461234b565b915081905092915050565b6000612bb982612af5565b9150612bc5828561234b565b9150612bd08261295d565b9150612bdc828461234b565b9150612be782612745565b91508190509392505050565b6000602082019050612c0860008301846122bb565b92915050565b6000608082019050612c2360008301876122bb565b612c3060208301866122bb565b612c3d6040830185612b35565b8181036060830152612c4f81846122d9565b905095945050505050565b6000604082019050612c6f60008301856122bb565b612c7c6020830184612b35565b9392505050565b6000602082019050612c9860008301846122ca565b92915050565b60006020820190508181036000830152612cb88184612312565b905092915050565b60006060820190508181036000830152612cda8186612312565b9050612ce96020830185612b35565b612cf660408301846122bb565b949350505050565b60006020820190508181036000830152612d17816123fb565b9050919050565b60006020820190508181036000830152612d3781612461565b9050919050565b60006020820190508181036000830152612d57816124a1565b9050919050565b60006020820190508181036000830152612d7781612507565b9050919050565b60006020820190508181036000830152612d9781612547565b9050919050565b60006020820190508181036000830152612db7816125ad565b9050919050565b60006020820190508181036000830152612dd781612613565b9050919050565b60006020820190508181036000830152612df781612679565b9050919050565b60006020820190508181036000830152612e17816126df565b9050919050565b60006020820190508181036000830152612e3781612785565b9050919050565b60006020820190508181036000830152612e57816127c5565b9050919050565b60006020820190508181036000830152612e778161282b565b9050919050565b60006020820190508181036000830152612e9781612891565b9050919050565b60006020820190508181036000830152612eb7816128f7565b9050919050565b60006020820190508181036000830152612ed7816129e9565b9050919050565b60006020820190508181036000830152612ef781612a8f565b9050919050565b6000602082019050612f136000830184612b35565b92915050565b6000604051905081810181811067ffffffffffffffff82111715612f4057612f3f61334a565b5b8060405250919050565b600067ffffffffffffffff821115612f6557612f6461334a565b5b601f19601f8301169050602081019050919050565b600067ffffffffffffffff821115612f9557612f9461334a565b5b601f19601f8301169050602081019050919050565b60008190508160005260206000209050919050565b600081519050919050565b600081519050919050565b600082825260208201905092915050565b600082825260208201905092915050565b600081905092915050565b600061300d826131b8565b9150613018836131b8565b9250827fffffffffffffffffffffffffffffffffffffffffffffffffffffffffffffffff0382111561304d5761304c6132bd565b5b828201905092915050565b6000613063826131c2565b915061306e836131c2565b92508260ff03821115613084576130836132bd565b5b828201905092915050565b600061309a826131b8565b91506130a5836131b8565b9250826130b5576130b46132ec565b5b828204905092915050565b60006130cb826131b8565b91506130d6836131b8565b9250817fffffffffffffffffffffffffffffffffffffffffffffffffffffffffffffffff048311821515161561310f5761310e6132bd565b5b828202905092915050565b6000613125826131b8565b9150613130836131b8565b925082821015613143576131426132bd565b5b828203905092915050565b600061315982613198565b9050919050565b60008115159050919050565b60007fffffffff0000000000000000000000000000000000000000000000000000000082169050919050565b600073ffffffffffffffffffffffffffffffffffffffff82169050919050565b6000819050919050565b600060ff82169050919050565b82818337600083830152505050565b60005b838110156131fc5780820151818401526020810190506131e1565b8381111561320b576000848401525b50505050565b6000600282049050600182168061322957607f821691505b6020821081141561323d5761323c61331b565b5b50919050565b600061324e826131b8565b91507fffffffffffffffffffffffffffffffffffffffffffffffffffffffffffffffff821415613281576132806132bd565b5b600182019050919050565b6000613297826131b8565b91506132a2836131b8565b9250826132b2576132b16132ec565b5b828206905092915050565b7f4e487b7100000000000000000000000000000000000000000000000000000000600052601160045260246000fd5b7f4e487b7100000000000000000000000000000000000000000000000000000000600052601260045260246000fd5b7f4e487b7100000000000000000000000000000000000000000000000000000000600052602260045260246000fd5b7f4e487b7100000000000000000000000000000000000000000000000000000000600052604160045260246000fd5b6000601f19601f8301169050919050565b6133938161314e565b811461339e57600080fd5b50565b6133aa81613160565b81146133b557600080fd5b50565b6133c18161316c565b81146133cc57600080fd5b50565b6133d8816131b8565b81146133e357600080fd5b5056fe416e204e465420772f20494420257320686173206265656e206d696e74656420746f2025734142434445464748494a4b4c4d4e4f505152535455565758595a6162636465666768696a6b6c6d6e6f707172737475767778797a303132333435363738392b2fa2646970667358221220ca8b94baf1789d844f97aa2f59f253a1366a741ea74f337c57e838f5bf20ac0664736f6c63430008000033",
  "linkReferences": {},
  "deployedLinkReferences": {}
}