{
  "_format": "hh-sol-artifact-1",
  "contractName": "RoboNFT",
  "sourceName": "contracts/SRDNFT.sol",
  "abi": [
    {
      "inputs": [],
      "stateMutability": "nonpayable",
      "type": "constructor"
    },
    {
      "anonymous": false,
      "inputs": [
        {
          "indexed": true,
          "internalType": "address",
          "name": "owner",
          "type": "address"
        },
        {
          "indexed": true,
          "internalType": "address",
          "name": "approved",
          "type": "address"
        },
        {
          "indexed": true,
          "internalType": "uint256",
          "name": "tokenId",
          "type": "uint256"
        }
      ],
      "name": "Approval",
      "type": "event"
    },
    {
      "anonymous": false,
      "inputs": [
        {
          "indexed": true,
          "internalType": "address",
          "name": "owner",
          "type": "address"
        },
        {
          "indexed": true,
          "internalType": "address",
          "name": "operator",
          "type": "address"
        },
        {
          "indexed": false,
          "internalType": "bool",
          "name": "approved",
          "type": "bool"
        }
      ],
      "name": "ApprovalForAll",
      "type": "event"
    },
    {
      "anonymous": false,
      "inputs": [
        {
          "indexed": false,
          "internalType": "address",
          "name": "sender",
          "type": "address"
        },
        {
          "indexed": false,
          "internalType": "uint256",
          "name": "tokenId",
          "type": "uint256"
        }
      ],
      "name": "NewEpicNFTMinted",
      "type": "event"
    },
    {
      "anonymous": false,
      "inputs": [
        {
          "indexed": true,
          "internalType": "address",
          "name": "from",
          "type": "address"
        },
        {
          "indexed": true,
          "internalType": "address",
          "name": "to",
          "type": "address"
        },
        {
          "indexed": true,
          "internalType": "uint256",
          "name": "tokenId",
          "type": "uint256"
        }
      ],
      "name": "Transfer",
      "type": "event"
    },
    {
      "inputs": [
        {
          "internalType": "address",
          "name": "to",
          "type": "address"
        },
        {
          "internalType": "uint256",
          "name": "tokenId",
          "type": "uint256"
        }
      ],
      "name": "approve",
      "outputs": [],
      "stateMutability": "nonpayable",
      "type": "function"
    },
    {
      "inputs": [
        {
          "internalType": "address",
          "name": "owner",
          "type": "address"
        }
      ],
      "name": "balanceOf",
      "outputs": [
        {
          "internalType": "uint256",
          "name": "",
          "type": "uint256"
        }
      ],
      "stateMutability": "view",
      "type": "function"
    },
    {
      "inputs": [
        {
          "internalType": "uint256",
          "name": "tokenId",
          "type": "uint256"
        }
      ],
      "name": "getApproved",
      "outputs": [
        {
          "internalType": "address",
          "name": "",
          "type": "address"
        }
      ],
      "stateMutability": "view",
      "type": "function"
    },
    {
      "inputs": [
        {
          "internalType": "address",
          "name": "owner",
          "type": "address"
        },
        {
          "internalType": "address",
          "name": "operator",
          "type": "address"
        }
      ],
      "name": "isApprovedForAll",
      "outputs": [
        {
          "internalType": "bool",
          "name": "",
          "type": "bool"
        }
      ],
      "stateMutability": "view",
      "type": "function"
    },
    {
      "inputs": [
        {
          "internalType": "string",
          "name": "_message",
          "type": "string"
        }
      ],
      "name": "makeAnEpicNFT",
      "outputs": [],
      "stateMutability": "nonpayable",
      "type": "function"
    },
    {
      "inputs": [],
      "name": "name",
      "outputs": [
        {
          "internalType": "string",
          "name": "",
          "type": "string"
        }
      ],
      "stateMutability": "view",
      "type": "function"
    },
    {
      "inputs": [
        {
          "internalType": "uint256",
          "name": "tokenId",
          "type": "uint256"
        }
      ],
      "name": "ownerOf",
      "outputs": [
        {
          "internalType": "address",
          "name": "",
          "type": "address"
        }
      ],
      "stateMutability": "view",
      "type": "function"
    },
    {
      "inputs": [
        {
          "internalType": "address",
          "name": "from",
          "type": "address"
        },
        {
          "internalType": "address",
          "name": "to",
          "type": "address"
        },
        {
          "internalType": "uint256",
          "name": "tokenId",
          "type": "uint256"
        }
      ],
      "name": "safeTransferFrom",
      "outputs": [],
      "stateMutability": "nonpayable",
      "type": "function"
    },
    {
      "inputs": [
        {
          "internalType": "address",
          "name": "from",
          "type": "address"
        },
        {
          "internalType": "address",
          "name": "to",
          "type": "address"
        },
        {
          "internalType": "uint256",
          "name": "tokenId",
          "type": "uint256"
        },
        {
          "internalType": "bytes",
          "name": "_data",
          "type": "bytes"
        }
      ],
      "name": "safeTransferFrom",
      "outputs": [],
      "stateMutability": "nonpayable",
      "type": "function"
    },
    {
      "inputs": [
        {
          "internalType": "address",
          "name": "operator",
          "type": "address"
        },
        {
          "internalType": "bool",
          "name": "approved",
          "type": "bool"
        }
      ],
      "name": "setApprovalForAll",
      "outputs": [],
      "stateMutability": "nonpayable",
      "type": "function"
    },
    {
      "inputs": [
        {
          "internalType": "bytes4",
          "name": "interfaceId",
          "type": "bytes4"
        }
      ],
      "name": "supportsInterface",
      "outputs": [
        {
          "internalType": "bool",
          "name": "",
          "type": "bool"
        }
      ],
      "stateMutability": "view",
      "type": "function"
    },
    {
      "inputs": [],
      "name": "symbol",
      "outputs": [
        {
          "internalType": "string",
          "name": "",
          "type": "string"
        }
      ],
      "stateMutability": "view",
      "type": "function"
    },
    {
      "inputs": [
        {
          "internalType": "uint256",
          "name": "tokenId",
          "type": "uint256"
        }
      ],
      "name": "tokenURI",
      "outputs": [
        {
          "internalType": "string",
          "name": "",
          "type": "string"
        }
      ],
      "stateMutability": "view",
      "type": "function"
    },
    {
      "inputs": [
        {
          "internalType": "address",
          "name": "from",
          "type": "address"
        },
        {
          "internalType": "address",
          "name": "to",
          "type": "address"
        },
        {
          "internalType": "uint256",
          "name": "tokenId",
          "type": "uint256"
        }
      ],
      "name": "transferFrom",
      "outputs": [],
      "stateMutability": "nonpayable",
      "type": "function"
    }
  ],
  "bytecode": "0x60806040526040518060a00160405280606481526020016200354760649139600890805190602001906200003592919062000201565b503480156200004357600080fd5b506040518060400160405280600781526020017f526f626f4e4654000000000000000000000000000000000000000000000000008152506040518060400160405280600481526020017f524f424f000000000000000000000000000000000000000000000000000000008152508160009080519060200190620000c892919062000201565b508060019080519060200190620000e192919062000201565b5050506200012f6040518060400160405280601e81526020017f54686973206973206d79204e465420636f6e74726163742e20576f61682100008152506200013560201b62000d331760201c565b620003de565b620001d5816040516024016200014c9190620002f2565b6040516020818303038152906040527f41304fac000000000000000000000000000000000000000000000000000000007bffffffffffffffffffffffffffffffffffffffffffffffffffffffff19166020820180517bffffffffffffffffffffffffffffffffffffffffffffffffffffffff8381831617835250505050620001d860201b60201c565b50565b60008151905060006a636f6e736f6c652e6c6f679050602083016000808483855afa5050505050565b8280546200020f9062000368565b90600052602060002090601f0160209004810192826200023357600085556200027f565b82601f106200024e57805160ff19168380011785556200027f565b828001600101855582156200027f579182015b828111156200027e57825182559160200191906001019062000261565b5b5090506200028e919062000292565b5090565b5b80821115620002ad57600081600090555060010162000293565b5090565b6000620002be8262000316565b620002ca818562000321565b9350620002dc81856020860162000332565b620002e781620003cd565b840191505092915050565b600060208201905081810360008301526200030e8184620002b1565b905092915050565b600081519050919050565b600082825260208201905092915050565b60005b838110156200035257808201518184015260208101905062000335565b8381111562000362576000848401525b50505050565b600060028204905060018216806200038157607f821691505b602082108114156200039857620003976200039e565b5b50919050565b7f4e487b7100000000000000000000000000000000000000000000000000000000600052602260045260246000fd5b6000601f19601f8301169050919050565b61315980620003ee6000396000f3fe608060405234801561001057600080fd5b50600436106100ea5760003560e01c80636352211e1161008c578063a22cb46511610066578063a22cb4651461025b578063b88d4fde14610277578063c87b56dd14610293578063e985e9c5146102c3576100ea565b80636352211e146101dd57806370a082311461020d57806395d89b411461023d576100ea565b8063095ea7b3116100c8578063095ea7b31461016d57806323b872dd1461018957806339fa8daf146101a557806342842e0e146101c1576100ea565b806301ffc9a7146100ef57806306fdde031461011f578063081812fc1461013d575b600080fd5b61010960048036038101906101049190611ffb565b6102f3565b604051610116919061299f565b60405180910390f35b6101276103d5565b60405161013491906129ba565b60405180910390f35b6101576004803603810190610152919061208e565b610467565b604051610164919061290f565b60405180910390f35b61018760048036038101906101829190611fbf565b6104ec565b005b6101a3600480360381019061019e9190611eb9565b610604565b005b6101bf60048036038101906101ba919061204d565b610664565b005b6101db60048036038101906101d69190611eb9565b61074e565b005b6101f760048036038101906101f2919061208e565b61076e565b604051610204919061290f565b60405180910390f35b61022760048036038101906102229190611e54565b610820565b6040516102349190612c1a565b60405180910390f35b6102456108d8565b60405161025291906129ba565b60405180910390f35b61027560048036038101906102709190611f83565b61096a565b005b610291600480360381019061028c9190611f08565b610aeb565b005b6102ad60048036038101906102a8919061208e565b610b4d565b6040516102ba91906129ba565b60405180910390f35b6102dd60048036038101906102d89190611e7d565b610c9f565b6040516102ea919061299f565b60405180910390f35b60007f80ac58cd000000000000000000000000000000000000000000000000000000007bffffffffffffffffffffffffffffffffffffffffffffffffffffffff1916827bffffffffffffffffffffffffffffffffffffffffffffffffffffffff191614806103be57507f5b5e139f000000000000000000000000000000000000000000000000000000007bffffffffffffffffffffffffffffffffffffffffffffffffffffffff1916827bffffffffffffffffffffffffffffffffffffffffffffffffffffffff1916145b806103ce57506103cd82610dcc565b5b9050919050565b6060600080546103e490612ee9565b80601f016020809104026020016040519081016040528092919081815260200182805461041090612ee9565b801561045d5780601f106104325761010080835404028352916020019161045d565b820191906000526020600020905b81548152906001019060200180831161044057829003601f168201915b5050505050905090565b600061047282610e36565b6104b1576040517f08c379a00000000000000000000000000000000000000000000000000000000081526004016104a890612b7a565b60405180910390fd5b6004600083815260200190815260200160002060009054906101000a900473ffffffffffffffffffffffffffffffffffffffff169050919050565b60006104f78261076e565b90508073ffffffffffffffffffffffffffffffffffffffff168373ffffffffffffffffffffffffffffffffffffffff161415610568576040517f08c379a000000000000000000000000000000000000000000000000000000000815260040161055f90612bda565b60405180910390fd5b8073ffffffffffffffffffffffffffffffffffffffff16610587610ea2565b73ffffffffffffffffffffffffffffffffffffffff1614806105b657506105b5816105b0610ea2565b610c9f565b5b6105f5576040517f08c379a00000000000000000000000000000000000000000000000000000000081526004016105ec90612aba565b60405180910390fd5b6105ff8383610eaa565b505050565b61061561060f610ea2565b82610f63565b610654576040517f08c379a000000000000000000000000000000000000000000000000000000000815260040161064b90612bfa565b60405180910390fd5b61065f838383611041565b505050565b6000610670600761129d565b905060006008836040516020016106889291906128be565b60405160208183030381529060405290506106a281610d33565b60006106ad826112ab565b6040516020016106bd91906128ed565b60405160208183030381529060405290506106d83384611469565b6106e28382611487565b6107056040518060600160405280602581526020016130bf6025913984336114fb565b7febb98688741ffa4c7589bf325de30cf7becb63de567842e1ccdb6cb949fdc82c3384604051610736929190612976565b60405180910390a1610748600761159a565b50505050565b61076983838360405180602001604052806000815250610aeb565b505050565b6000806002600084815260200190815260200160002060009054906101000a900473ffffffffffffffffffffffffffffffffffffffff169050600073ffffffffffffffffffffffffffffffffffffffff168173ffffffffffffffffffffffffffffffffffffffff161415610817576040517f08c379a000000000000000000000000000000000000000000000000000000000815260040161080e90612afa565b60405180910390fd5b80915050919050565b60008073ffffffffffffffffffffffffffffffffffffffff168273ffffffffffffffffffffffffffffffffffffffff161415610891576040517f08c379a000000000000000000000000000000000000000000000000000000000815260040161088890612ada565b60405180910390fd5b600360008373ffffffffffffffffffffffffffffffffffffffff1673ffffffffffffffffffffffffffffffffffffffff168152602001908152602001600020549050919050565b6060600180546108e790612ee9565b80601f016020809104026020016040519081016040528092919081815260200182805461091390612ee9565b80156109605780601f1061093557610100808354040283529160200191610960565b820191906000526020600020905b81548152906001019060200180831161094357829003601f168201915b5050505050905090565b610972610ea2565b73ffffffffffffffffffffffffffffffffffffffff168273ffffffffffffffffffffffffffffffffffffffff1614156109e0576040517f08c379a00000000000000000000000000000000000000000000000000000000081526004016109d790612a7a565b60405180910390fd5b80600560006109ed610ea2565b73ffffffffffffffffffffffffffffffffffffffff1673ffffffffffffffffffffffffffffffffffffffff16815260200190815260200160002060008473ffffffffffffffffffffffffffffffffffffffff1673ffffffffffffffffffffffffffffffffffffffff16815260200190815260200160002060006101000a81548160ff0219169083151502179055508173ffffffffffffffffffffffffffffffffffffffff16610a9a610ea2565b73ffffffffffffffffffffffffffffffffffffffff167f17307eab39ab6107e8899845ad3d59bd9653f200f220920489ca2b5937696c3183604051610adf919061299f565b60405180910390a35050565b610afc610af6610ea2565b83610f63565b610b3b576040517f08c379a0000000000000000000000000000000000000000000000000000000008152600401610b3290612bfa565b60405180910390fd5b610b47848484846115b0565b50505050565b6060610b5882610e36565b610b97576040517f08c379a0000000000000000000000000000000000000000000000000000000008152600401610b8e90612b5a565b60405180910390fd5b6000600660008481526020019081526020016000208054610bb790612ee9565b80601f0160208091040260200160405190810160405280929190818152602001828054610be390612ee9565b8015610c305780601f10610c0557610100808354040283529160200191610c30565b820191906000526020600020905b815481529060010190602001808311610c1357829003601f168201915b505050505090506000610c4161160c565b9050600081511415610c57578192505050610c9a565b600082511115610c8c578082604051602001610c7492919061289a565b60405160208183030381529060405292505050610c9a565b610c9584611623565b925050505b919050565b6000600560008473ffffffffffffffffffffffffffffffffffffffff1673ffffffffffffffffffffffffffffffffffffffff16815260200190815260200160002060008373ffffffffffffffffffffffffffffffffffffffff1673ffffffffffffffffffffffffffffffffffffffff16815260200190815260200160002060009054906101000a900460ff16905092915050565b610dc981604051602401610d4791906129ba565b6040516020818303038152906040527f41304fac000000000000000000000000000000000000000000000000000000007bffffffffffffffffffffffffffffffffffffffffffffffffffffffff19166020820180517bffffffffffffffffffffffffffffffffffffffffffffffffffffffff83818316178352505050506116ca565b50565b60007f01ffc9a7000000000000000000000000000000000000000000000000000000007bffffffffffffffffffffffffffffffffffffffffffffffffffffffff1916827bffffffffffffffffffffffffffffffffffffffffffffffffffffffff1916149050919050565b60008073ffffffffffffffffffffffffffffffffffffffff166002600084815260200190815260200160002060009054906101000a900473ffffffffffffffffffffffffffffffffffffffff1673ffffffffffffffffffffffffffffffffffffffff1614159050919050565b600033905090565b816004600083815260200190815260200160002060006101000a81548173ffffffffffffffffffffffffffffffffffffffff021916908373ffffffffffffffffffffffffffffffffffffffff160217905550808273ffffffffffffffffffffffffffffffffffffffff16610f1d8361076e565b73ffffffffffffffffffffffffffffffffffffffff167f8c5be1e5ebec7d5bd14f71427d1e84f3dd0314c0f7b2291e5b200ac8c7c3b92560405160405180910390a45050565b6000610f6e82610e36565b610fad576040517f08c379a0000000000000000000000000000000000000000000000000000000008152600401610fa490612a9a565b60405180910390fd5b6000610fb88361076e565b90508073ffffffffffffffffffffffffffffffffffffffff168473ffffffffffffffffffffffffffffffffffffffff16148061102757508373ffffffffffffffffffffffffffffffffffffffff1661100f84610467565b73ffffffffffffffffffffffffffffffffffffffff16145b8061103857506110378185610c9f565b5b91505092915050565b8273ffffffffffffffffffffffffffffffffffffffff166110618261076e565b73ffffffffffffffffffffffffffffffffffffffff16146110b7576040517f08c379a00000000000000000000000000000000000000000000000000000000081526004016110ae90612b9a565b60405180910390fd5b600073ffffffffffffffffffffffffffffffffffffffff168273ffffffffffffffffffffffffffffffffffffffff161415611127576040517f08c379a000000000000000000000000000000000000000000000000000000000815260040161111e90612a5a565b60405180910390fd5b6111328383836116f3565b61113d600082610eaa565b6001600360008573ffffffffffffffffffffffffffffffffffffffff1673ffffffffffffffffffffffffffffffffffffffff168152602001908152602001600020600082825461118d9190612dff565b925050819055506001600360008473ffffffffffffffffffffffffffffffffffffffff1673ffffffffffffffffffffffffffffffffffffffff16815260200190815260200160002060008282546111e49190612d1e565b92505081905550816002600083815260200190815260200160002060006101000a81548173ffffffffffffffffffffffffffffffffffffffff021916908373ffffffffffffffffffffffffffffffffffffffff160217905550808273ffffffffffffffffffffffffffffffffffffffff168473ffffffffffffffffffffffffffffffffffffffff167fddf252ad1be2c89b69c2b068fc378daa952ba7f163c4a11628f55a4df523b3ef60405160405180910390a4505050565b600081600001549050919050565b606060008251905060008114156112d45760405180602001604052806000815250915050611464565b600060036002836112e59190612d1e565b6112ef9190612d74565b60046112fb9190612da5565b9050600060208261130c9190612d1e565b67ffffffffffffffff81111561134b577f4e487b7100000000000000000000000000000000000000000000000000000000600052604160045260246000fd5b6040519080825280601f01601f19166020018201604052801561137d5781602001600182028036833780820191505090505b50905060006040518060600160405280604081526020016130e4604091399050600181016020830160005b868110156114215760038101905062ffffff818a015116603f8160121c168401518060081b905060ff603f83600c1c1686015116810190508060081b905060ff603f8360061c1686015116810190508060081b905060ff603f831686015116810190508060e01b905080845260048401935050506113a8565b50600386066001811461143b576002811461144b57611456565b613d3d60f01b6002830352611456565b603d60f81b60018303525b508484525050819450505050505b919050565b6114838282604051806020016040528060008152506116f8565b5050565b61149082610e36565b6114cf576040517f08c379a00000000000000000000000000000000000000000000000000000000081526004016114c690612b1a565b60405180910390fd5b806006600084815260200190815260200160002090805190602001906114f6929190611c78565b505050565b611595838383604051602401611513939291906129dc565b6040516020818303038152906040527fe3849f79000000000000000000000000000000000000000000000000000000007bffffffffffffffffffffffffffffffffffffffffffffffffffffffff19166020820180517bffffffffffffffffffffffffffffffffffffffffffffffffffffffff83818316178352505050506116ca565b505050565b6001816000016000828254019250508190555050565b6115bb848484611041565b6115c784848484611753565b611606576040517f08c379a00000000000000000000000000000000000000000000000000000000081526004016115fd90612a1a565b60405180910390fd5b50505050565b606060405180602001604052806000815250905090565b606061162e82610e36565b61166d576040517f08c379a000000000000000000000000000000000000000000000000000000000815260040161166490612bba565b60405180910390fd5b600061167761160c565b9050600081511161169757604051806020016040528060008152506116c2565b806116a1846118ea565b6040516020016116b292919061289a565b6040516020818303038152906040525b915050919050565b60008151905060006a636f6e736f6c652e6c6f679050602083016000808483855afa5050505050565b505050565b6117028383611a97565b61170f6000848484611753565b61174e576040517f08c379a000000000000000000000000000000000000000000000000000000000815260040161174590612a1a565b60405180910390fd5b505050565b60006117748473ffffffffffffffffffffffffffffffffffffffff16611c65565b156118dd578373ffffffffffffffffffffffffffffffffffffffff1663150b7a0261179d610ea2565b8786866040518563ffffffff1660e01b81526004016117bf949392919061292a565b602060405180830381600087803b1580156117d957600080fd5b505af192505050801561180a57506040513d601f19601f820116820180604052508101906118079190612024565b60015b61188d573d806000811461183a576040519150601f19603f3d011682016040523d82523d6000602084013e61183f565b606091505b50600081511415611885576040517f08c379a000000000000000000000000000000000000000000000000000000000815260040161187c90612a1a565b60405180910390fd5b805181602001fd5b63150b7a0260e01b7bffffffffffffffffffffffffffffffffffffffffffffffffffffffff1916817bffffffffffffffffffffffffffffffffffffffffffffffffffffffff1916149150506118e2565b600190505b949350505050565b60606000821415611932576040518060400160405280600181526020017f30000000000000000000000000000000000000000000000000000000000000008152509050611a92565b600082905060005b6000821461196457808061194d90612f1b565b915050600a8261195d9190612d74565b915061193a565b60008167ffffffffffffffff8111156119a6577f4e487b7100000000000000000000000000000000000000000000000000000000600052604160045260246000fd5b6040519080825280601f01601f1916602001820160405280156119d85781602001600182028036833780820191505090505b5090505b60008514611a8b576001826119f19190612dff565b9150600a85611a009190612f64565b6030611a0c9190612d1e565b60f81b818381518110611a48577f4e487b7100000000000000000000000000000000000000000000000000000000600052603260045260246000fd5b60200101907effffffffffffffffffffffffffffffffffffffffffffffffffffffffffffff1916908160001a905350600a85611a849190612d74565b94506119dc565b8093505050505b919050565b600073ffffffffffffffffffffffffffffffffffffffff168273ffffffffffffffffffffffffffffffffffffffff161415611b07576040517f08c379a0000000000000000000000000000000000000000000000000000000008152600401611afe90612b3a565b60405180910390fd5b611b1081610e36565b15611b50576040517f08c379a0000000000000000000000000000000000000000000000000000000008152600401611b4790612a3a565b60405180910390fd5b611b5c600083836116f3565b6001600360008473ffffffffffffffffffffffffffffffffffffffff1673ffffffffffffffffffffffffffffffffffffffff1681526020019081526020016000206000828254611bac9190612d1e565b92505081905550816002600083815260200190815260200160002060006101000a81548173ffffffffffffffffffffffffffffffffffffffff021916908373ffffffffffffffffffffffffffffffffffffffff160217905550808273ffffffffffffffffffffffffffffffffffffffff16600073ffffffffffffffffffffffffffffffffffffffff167fddf252ad1be2c89b69c2b068fc378daa952ba7f163c4a11628f55a4df523b3ef60405160405180910390a45050565b600080823b905060008111915050919050565b828054611c8490612ee9565b90600052602060002090601f016020900481019282611ca65760008555611ced565b82601f10611cbf57805160ff1916838001178555611ced565b82800160010185558215611ced579182015b82811115611cec578251825591602001919060010190611cd1565b5b509050611cfa9190611cfe565b5090565b5b80821115611d17576000816000905550600101611cff565b5090565b6000611d2e611d2984612c66565b612c35565b905082815260208101848484011115611d4657600080fd5b611d51848285612ea7565b509392505050565b6000611d6c611d6784612c96565b612c35565b905082815260208101848484011115611d8457600080fd5b611d8f848285612ea7565b509392505050565b600081359050611da681613062565b92915050565b600081359050611dbb81613079565b92915050565b600081359050611dd081613090565b92915050565b600081519050611de581613090565b92915050565b600082601f830112611dfc57600080fd5b8135611e0c848260208601611d1b565b91505092915050565b600082601f830112611e2657600080fd5b8135611e36848260208601611d59565b91505092915050565b600081359050611e4e816130a7565b92915050565b600060208284031215611e6657600080fd5b6000611e7484828501611d97565b91505092915050565b60008060408385031215611e9057600080fd5b6000611e9e85828601611d97565b9250506020611eaf85828601611d97565b9150509250929050565b600080600060608486031215611ece57600080fd5b6000611edc86828701611d97565b9350506020611eed86828701611d97565b9250506040611efe86828701611e3f565b9150509250925092565b60008060008060808587031215611f1e57600080fd5b6000611f2c87828801611d97565b9450506020611f3d87828801611d97565b9350506040611f4e87828801611e3f565b925050606085013567ffffffffffffffff811115611f6b57600080fd5b611f7787828801611deb565b91505092959194509250565b60008060408385031215611f9657600080fd5b6000611fa485828601611d97565b9250506020611fb585828601611dac565b9150509250929050565b60008060408385031215611fd257600080fd5b6000611fe085828601611d97565b9250506020611ff185828601611e3f565b9150509250929050565b60006020828403121561200d57600080fd5b600061201b84828501611dc1565b91505092915050565b60006020828403121561203657600080fd5b600061204484828501611dd6565b91505092915050565b60006020828403121561205f57600080fd5b600082013567ffffffffffffffff81111561207957600080fd5b61208584828501611e15565b91505092915050565b6000602082840312156120a057600080fd5b60006120ae84828501611e3f565b91505092915050565b6120c081612e33565b82525050565b6120cf81612e45565b82525050565b60006120e082612cdb565b6120ea8185612cf1565b93506120fa818560208601612eb6565b61210381613051565b840191505092915050565b600061211982612ce6565b6121238185612d02565b9350612133818560208601612eb6565b61213c81613051565b840191505092915050565b600061215282612ce6565b61215c8185612d13565b935061216c818560208601612eb6565b80840191505092915050565b6000815461218581612ee9565b61218f8186612d13565b945060018216600081146121aa57600181146121bb576121ee565b60ff198316865281860193506121ee565b6121c485612cc6565b60005b838110156121e6578154818901526001820191506020810190506121c7565b838801955050505b50505092915050565b6000612204603283612d02565b91507f4552433732313a207472616e7366657220746f206e6f6e20455243373231526560008301527f63656976657220696d706c656d656e74657200000000000000000000000000006020830152604082019050919050565b600061226a601c83612d02565b91507f4552433732313a20746f6b656e20616c7265616479206d696e746564000000006000830152602082019050919050565b60006122aa602483612d02565b91507f4552433732313a207472616e7366657220746f20746865207a65726f2061646460008301527f72657373000000000000000000000000000000000000000000000000000000006020830152604082019050919050565b6000612310601983612d02565b91507f4552433732313a20617070726f766520746f2063616c6c6572000000000000006000830152602082019050919050565b6000612350602c83612d02565b91507f4552433732313a206f70657261746f7220717565727920666f72206e6f6e657860008301527f697374656e7420746f6b656e00000000000000000000000000000000000000006020830152604082019050919050565b60006123b6603883612d02565b91507f4552433732313a20617070726f76652063616c6c6572206973206e6f74206f7760008301527f6e6572206e6f7220617070726f76656420666f7220616c6c00000000000000006020830152604082019050919050565b600061241c602a83612d02565b91507f4552433732313a2062616c616e636520717565727920666f7220746865207a6560008301527f726f2061646472657373000000000000000000000000000000000000000000006020830152604082019050919050565b6000612482602983612d02565b91507f4552433732313a206f776e657220717565727920666f72206e6f6e657869737460008301527f656e7420746f6b656e00000000000000000000000000000000000000000000006020830152604082019050919050565b60006124e8602e83612d02565b91507f45524337323155524953746f726167653a2055524920736574206f66206e6f6e60008301527f6578697374656e7420746f6b656e0000000000000000000000000000000000006020830152604082019050919050565b600061254e602083612d02565b91507f4552433732313a206d696e7420746f20746865207a65726f20616464726573736000830152602082019050919050565b600061258e603183612d02565b91507f45524337323155524953746f726167653a2055524920717565727920666f722060008301527f6e6f6e6578697374656e7420746f6b656e0000000000000000000000000000006020830152604082019050919050565b60006125f4602c83612d02565b91507f4552433732313a20617070726f76656420717565727920666f72206e6f6e657860008301527f697374656e7420746f6b656e00000000000000000000000000000000000000006020830152604082019050919050565b600061265a602983612d02565b91507f4552433732313a207472616e73666572206f6620746f6b656e2074686174206960008301527f73206e6f74206f776e00000000000000000000000000000000000000000000006020830152604082019050919050565b60006126c0602f83612d02565b91507f4552433732314d657461646174613a2055524920717565727920666f72206e6f60008301527f6e6578697374656e7420746f6b656e00000000000000000000000000000000006020830152604082019050919050565b6000612726602183612d02565b91507f4552433732313a20617070726f76616c20746f2063757272656e74206f776e6560008301527f72000000000000000000000000000000000000000000000000000000000000006020830152604082019050919050565b600061278c603183612d02565b91507f4552433732313a207472616e736665722063616c6c6572206973206e6f74206f60008301527f776e6572206e6f7220617070726f7665640000000000000000000000000000006020830152604082019050919050565b60006127f2601a83612d13565b91507f646174613a696d6167652f7376672b786d6c3b6261736536342c0000000000006000830152601a82019050919050565b6000612832602383612d13565b91507f27206865696768743d27323030272077696474683d27323030272f3e203c2f7360008301527f76673e00000000000000000000000000000000000000000000000000000000006020830152602382019050919050565b61289481612e9d565b82525050565b60006128a68285612147565b91506128b28284612147565b91508190509392505050565b60006128ca8285612178565b91506128d68284612147565b91506128e182612825565b91508190509392505050565b60006128f8826127e5565b91506129048284612147565b915081905092915050565b600060208201905061292460008301846120b7565b92915050565b600060808201905061293f60008301876120b7565b61294c60208301866120b7565b612959604083018561288b565b818103606083015261296b81846120d5565b905095945050505050565b600060408201905061298b60008301856120b7565b612998602083018461288b565b9392505050565b60006020820190506129b460008301846120c6565b92915050565b600060208201905081810360008301526129d4818461210e565b905092915050565b600060608201905081810360008301526129f6818661210e565b9050612a05602083018561288b565b612a1260408301846120b7565b949350505050565b60006020820190508181036000830152612a33816121f7565b9050919050565b60006020820190508181036000830152612a538161225d565b9050919050565b60006020820190508181036000830152612a738161229d565b9050919050565b60006020820190508181036000830152612a9381612303565b9050919050565b60006020820190508181036000830152612ab381612343565b9050919050565b60006020820190508181036000830152612ad3816123a9565b9050919050565b60006020820190508181036000830152612af38161240f565b9050919050565b60006020820190508181036000830152612b1381612475565b9050919050565b60006020820190508181036000830152612b33816124db565b9050919050565b60006020820190508181036000830152612b5381612541565b9050919050565b60006020820190508181036000830152612b7381612581565b9050919050565b60006020820190508181036000830152612b93816125e7565b9050919050565b60006020820190508181036000830152612bb38161264d565b9050919050565b60006020820190508181036000830152612bd3816126b3565b9050919050565b60006020820190508181036000830152612bf381612719565b9050919050565b60006020820190508181036000830152612c138161277f565b9050919050565b6000602082019050612c2f600083018461288b565b92915050565b6000604051905081810181811067ffffffffffffffff82111715612c5c57612c5b613022565b5b8060405250919050565b600067ffffffffffffffff821115612c8157612c80613022565b5b601f19601f8301169050602081019050919050565b600067ffffffffffffffff821115612cb157612cb0613022565b5b601f19601f8301169050602081019050919050565b60008190508160005260206000209050919050565b600081519050919050565b600081519050919050565b600082825260208201905092915050565b600082825260208201905092915050565b600081905092915050565b6000612d2982612e9d565b9150612d3483612e9d565b9250827fffffffffffffffffffffffffffffffffffffffffffffffffffffffffffffffff03821115612d6957612d68612f95565b5b828201905092915050565b6000612d7f82612e9d565b9150612d8a83612e9d565b925082612d9a57612d99612fc4565b5b828204905092915050565b6000612db082612e9d565b9150612dbb83612e9d565b9250817fffffffffffffffffffffffffffffffffffffffffffffffffffffffffffffffff0483118215151615612df457612df3612f95565b5b828202905092915050565b6000612e0a82612e9d565b9150612e1583612e9d565b925082821015612e2857612e27612f95565b5b828203905092915050565b6000612e3e82612e7d565b9050919050565b60008115159050919050565b60007fffffffff0000000000000000000000000000000000000000000000000000000082169050919050565b600073ffffffffffffffffffffffffffffffffffffffff82169050919050565b6000819050919050565b82818337600083830152505050565b60005b83811015612ed4578082015181840152602081019050612eb9565b83811115612ee3576000848401525b50505050565b60006002820490506001821680612f0157607f821691505b60208210811415612f1557612f14612ff3565b5b50919050565b6000612f2682612e9d565b91507fffffffffffffffffffffffffffffffffffffffffffffffffffffffffffffffff821415612f5957612f58612f95565b5b600182019050919050565b6000612f6f82612e9d565b9150612f7a83612e9d565b925082612f8a57612f89612fc4565b5b828206905092915050565b7f4e487b7100000000000000000000000000000000000000000000000000000000600052601160045260246000fd5b7f4e487b7100000000000000000000000000000000000000000000000000000000600052601260045260246000fd5b7f4e487b7100000000000000000000000000000000000000000000000000000000600052602260045260246000fd5b7f4e487b7100000000000000000000000000000000000000000000000000000000600052604160045260246000fd5b6000601f19601f8301169050919050565b61306b81612e33565b811461307657600080fd5b50565b61308281612e45565b811461308d57600080fd5b50565b61309981612e51565b81146130a457600080fd5b50565b6130b081612e9d565b81146130bb57600080fd5b5056fe416e204e465420772f20494420257320686173206265656e206d696e74656420746f2025734142434445464748494a4b4c4d4e4f505152535455565758595a6162636465666768696a6b6c6d6e6f707172737475767778797a303132333435363738392b2fa2646970667358221220133f22c77e23452ed0a23f7a46cab16d1316e35ea1da4db52d1239e245a1b5bb64736f6c634300080000333c7376672077696474683d2732303027206865696768743d273230302720786d6c6e733d27687474703a2f2f7777772e77332e6f72672f323030302f737667273e203c696d61676520687265663d2768747470733a2f2f726f626f686173682e6f72672f",
  "linkReferences": {},
  "deployedLinkReferences": {}
}